:100000000C9434000C943E000C943E000C943E0082
:100010000C943E000C943E000C943E000C943E0068
:100020000C943E000C943E000C943E000C943E0058
:100030000C943E000C943E000C943E000C943E0048
:100040000C943E000C943E000C943E000C943E0038
:100050000C943E000C943E000C943E000C943E0028
:100060000C943E000C943E0011241FBECFEFD8E04C
:10007000DEBFCDBF0E945C000C94AA000C9400006F
:1000800080E480937C0087E880937A0008958770ED
:10009000ECE7F0E09081987F892B8083EAE7F0E03D
:1000A00080818064808380917A0086FDFCCF80917E
:1000B00078009091790008958FEF84B90E944000F4
:1000C00084B1826084B9E0E8F0E080818268808356
:1000D000E1E8F0E080818A6180838FE39CE990937E
:1000E00087008093860080E00E944700813991401C
:1000F00000F185B1816085B9E8E8F0E08CE697E031
:10010000918380838FE392E42FE0815090402040E0
:10011000E1F700C000008FE99FE0918380838FE3C7
:1001200092E42FE0815090402040E1F700C00000B1
:10013000DACF85B18E7F85B9109289001092880040
:100140008FE996E821E0815090402040E1F700C01F
:080150000000C9CFF894FFCFB5
:00000001FF
